:020000040800F2
:1000000090170024650300083F7B00080B6C000874
:100010003D7B000891170008ED97000800000000E4
:10002000000000000000000000000000BF80000889
:100030009317000800000000417B0008C180000801
:100040007F0300087F0300087F0300087F03000888
:100050007F0300087F0300087F0300087F03000878
:100060007F0300087F0300087F0300087F03000868
:100070007F0300087F0300087F0300087F03000858
:100080007F0300087F0300087F0300087F03000848
:100090007F0300087F0300087F0300087F03000838
:1000A0007F0300087F0300087F0300087F03000828
:1000B0007F0300087F0300087F0300087F03000818
:1000C0007F0300087F0300087F0300087F03000808
:1000D0007F030008D5970008E19700087F03000818
:1000E0007F0300087F030008000000007F03000872
:1000F0007F0300087F0300087F0300087F030008D8
:100100007F0300087F0300087F0300087F030008C7
:100110007F0300087F0300087F0300087F030008B7
:100120007F0300087F0300087F0300087F030008A7
:100130007F0300087F0300087F0300087F03000897
:1001400000000000000000000000000000000000AF
:100150007F0300087F0300087F0300087F03000877
:100160007F0300087F0300087F0300087F03000867
:100170007F0300087F0300087F0300087F03000857
:100180007F0300087F0300087F0300087F03000847
:100190007F0300087F0300087F0300087F03000837
:1001A0007F0300087F0300087F0300087F03000827
:1001B0007F0300087F0300087F0300087F03000817
:1001C0007F0300087F0300087F0300087F03000807
:1001D0007F0300087F0300087F0300087F030008F7
:1001E0007F0300087F0300087F0300087F030008E7
:1001F0007F0300087F0300087F0300087F030008D7
:100200007F0300087F0300087F0300087F030008C6
:100210007F0300087F0300087F0300087F030008B6
:100220007F0300087F0300087F0300080000000030
:100230007F0300087F030008000000007F03000820
:100240007F0300087F0300087F0300087F03000886
:100250007F0300087F0300087F0300087F03000876
:100260007F0300087F0300087F0300087F03000866
:100270007F0300087F0300087F03000800000000E0
:100280007F0300087F0300087F03000800000000D0
:10029000000000007F03000800F002F800F052F8B0
:1002A0000AA090E8000C82448344AAF10107DA45D1
:1002B00001D100F047F8AFF2090EBAE80F0013F0D1
:1002C000010F18BFFB1A43F001031847B0EA000002
:1002D000D0EA0000103A24BF78C878C1FAD8520793
:1002E00024BF30C830C144BF04680C6070470000B0
:1002F0000023002400250026103A28BF78C1FBD82F
:10030000520728BF30C148BF0B607047662909F00B
:10031000AC86642900F02E81782900F0678173296A
:1003200000F0F784002070471FB509F099FE00F037
:1003300007FD04000020002109F07CFEE0601FBDE5
:1003400010B510BD00F000FE1146FFF7EDFF09F0FB
:10035000CFFB00F01EFE03B4FFF7F2FF03BC00F07A
:1003600055FE00000948804709480047FEE7FEE7C0
:10037000FEE7FEE7FEE7FEE7FEE7FEE7FEE7FEE755
:1003800004480549054A064B704700006D81000886
:10039000990200089007002490170024900F002471
:1003A000900F002453EA020C00F069802DE9F04B15
:1003B0004FF00006002B1FBFB3FA83F503FA05F4D4
:1003C00024FA05F65E4012BF1643B2FA82F502FA2D
:1003D00005F4C5F120051EBF22FA05FC44EA0C0411
:1003E000203556EA044C4FEA144418BF641C4FF001
:1003F00000084FF00009904271EB030C39D300293B
:1004000019BFB1FA81F701FA07F6B0FA80F700FADE
:1004100007F6C7F120071EBF20FA07FC46EA0C06C4
:100420002037B6FBF4FCA7EB0507103F07F01F0BC6
:10043000CBF120060CFA0BFB2CFA06F644BFB346B0
:100440000026202FA4BF5E464FF0000B5BEA060C8F
:1004500008BF4FF0010B19EB0B09ABFB027C48EB1B
:100460000608C01B06FB02CC0BFB03CC71EB0C0196
:10047000C1E70B46024641464846BDE8F08B13B53E
:100480004FF000004FF00001AFF30080BDE81C40CA
:10049000704700000FB4044910B503AA029800F099
:1004A0003DFC10BC5DF814FB1C0000240FB41CB50F
:1004B000074B06AA7B4469460090059800F0FFFBB5
:1004C0000020694600F00EFC1CBC5DF814FB000027
:1004D0002D08000070B5044685690068C10601D585
:1004E000302600E02026C00707D070BDD4E90121E6
:1004F00030469047206A401C20626D1EF6D570BDC4
:1005000070B5044685690078C00707D170BDD4E98D
:10051000012120209047206A401C20626D1EF6D5E4
:1005200070BD70B50C460546012A05D028788006B6
:1005300000D5EA69002302E0012305E05B1C934239
:1005400002D2E05C0028F9D1A869E618C01AA861B7
:10055000286A184428622846FFF7BCFF04E0D5E962
:10056000012114F8010B9047B442F8D32846FFF755
:10057000C7FF70BD2DE9F0410646002410687529BB
:10058000314616A510D0AFF30080002802DA4042B1
:1005900013A507E031688A0701D512A502E04907D3
:1005A00004D511A5012401E0AFF3008000210A2247
:1005B00006F1240709E0B0FBF2FCB0FBF2F302FB0A
:1005C0001C00303078541846491C0028F3D12346CB
:1005D0002A463046BDE8F04100F005B900000000B1
:1005E0002D0000002B0000002000000070B5044624
:1005F0000D4621461068AFF300802188090502D519
:100600000F4A7A4402E00E4A7A440E32002104F185
:10061000240305E000F00F060009965D5E54491CB6
:100620000028F7D120780023000704D5702D02D0D0
:1006300009B1022311322046BDE8704000F0D3B862
:1006400054E600002DE9F05F894604464FF0000AA9
:10065000DFF824B1FB44C0F820A02046E1688847B9
:1006600000287DD0252806D0D4E901219047206AB2
:10067000401C2062F1E700255F462046E16888477C
:100680002028064607DB312E05D2B81910F8200CB9
:1006900008B10543F1E7A80701D525F00405C4F822
:1006A0001CA00027C4F818A02A2E09D0304609F053
:1006B0000BFA38B304EB8708303EC8F8186019E02D
:1006C00059F8041B204604EB87029161E1688847D2
:1006D000012F064618D1E069002820DA25F0200510
:1006E0001DE0D8F8180000EB800006EB4000303821
:1006F000C8F818002046E1688847064609F0E4F982
:100700000028EED1012F0AD02E2E08D12046E16814
:1007100088477F1C0646022F45F02005C4DBA069F0
:10072000002803DA404245F00105A061E80701D046
:1007300025F01005A6B1A6F14100192802D82036EF
:1007400045F400654A463146204625604D46FFF790
:10075000DDFD60B1012807D0ED1D25F0070000E0A8
:1007600007E000F1080978E705F1040975E730466C
:100770007AE7206ABDE8F09F2AE600004FF0000209
:1007800000B5134694469646203922BFA0E80C5087
:10079000A0E80C50B1F12001BFF4F7AF090728BF62
:1007A000A0E80C5048BF0CC05DF804EB890028BFDE
:1007B00040F8042B08BF704748BF20F8022B11F007
:1007C000804F18BF00F8012B704770477047704783
:1007D00010B500F0B9FA006810BD10B5044600F07D
:1007E000B3FA046010BD2DE9F0470D4699469246D4
:1007F000044600F124080168880604D5E06921F068
:100800001001216000E00120A84201DD471B00E04B
:100810000027A1697A1902EB0900081AA061207863
:10082000C00602D42046FFF755FE002608E0D4E9B2
:1008300001211AF806009047206A401C761C2062AD
:100840004E45F4DB2078C0060AD52046FFF742FE6D
:1008500006E0D4E9012130209047206A401C206244
:10086000381EA7F10107F4DC07E0D4E9012118F8EC
:1008700005009047206A401C2062281EA5F1010552
:10088000F3DC2046FFF73CFE2078000602D502206C
:10089000BDE8F0870120FBE770472DE9FF4F0C46CC
:1008A0001E464FF0FF378BB0D2E90001DDF86080C3
:1008B0000A908A46C1F30A5505B93D46002108460B
:1008C0004FF00000BAF1000F00F4400005DA00EB31
:1008D00080004FF4400101EA50004FEA9059B9F10D
:1008E000010F00DDB9460A9850EA4A000ED044F6DE
:1008F0001050A5F2FF3545432F14B8F1000F1ED05C
:100900007542291E1EDDC9F100021CE0B8F1010F7D
:100910004FF0000001D0302103E0F24305E0215404
:10092000401CB042FBDB30460022002121540B99D1
:10093000C1F80880C1E900200FB0BDE8F08FBD1BF1
:100940006D1CDEE74A4600DA694206A800F086FA26
:1009500006AB93E8070003AB83E8070050460A990B
:1009600000F05BFB8DE80700A0F500501F380090F9
:100970000398002D09DD42F21F014A46084403A9ED
:100980000390684600F0BAFD08E0A0F500504A4622
:100990001F3803A90390684600F0C4FD8DE80700E6
:1009A0000004000C03D04FF0FF30410800E0104677
:1009B000B8F1000F03D00022009215461EE0751E0C
:1009C00005D400F0C5F9303262556D1EF9D5B34635
:1009D0000122084302D000227F1C04E02078302846
:1009E00001D100227F1E002A099786D01DE0112D1B
:1009F00007DA00F0ADF9303262556D1C50EA0102A1
:100A0000F5D1084302D00098C8B10EE00021681E5D
:100A100005E0235C625C63542254401E491C814201
:100A2000F7DBAB46A81B401E0990002004F80B0022
:100A30000B98099AC0F80880C0E9002B7CE71126C2
:100A40004FF0000859E72DE9F04F88460446D21DC3
:100A500022F0070191B0D1E90001CDE90A0108F0C7
:100A6000C6FE02460B98C00F01D02D2007E020687B
:100A7000810701D52B2002E0202101EAC000032AD2
:100A8000099001D0072A05DB03464146204600F0C5
:100A9000A5F90BE12078800601D5E06900E0062089
:100AA000B8F1650F814606D0B8F1660F18D0B8F1DD
:100AB000670F70D131E00020B9F1110F009001DB18
:100AC000112301E009F101030AAA01A90CA8FFF70B
:100AD000E4FEDDE90C70002609F10105834647E0DC
:100AE00001204B4600904FF000470AAA01A90CA82C
:100AF000FFF7D3FEDDE90DB00C995D46002610B975
:100B000009F101000D18B9EB050003D4C0F1FF365F
:100B100009F10105A5EB09002BE0B9F1010F01DA9C
:100B20004FF001090020B9F1110F0090484601DD96
:100B3000112300E003460AAA01A90CA8FFF7ADFEA5
:100B4000DDE90C704D4600268346207800070AD464
:100B5000AB4500DA5D4601A8012D04DD411911F80D
:100B6000011C302907D04F4502DA17F1040F04DACF
:100B7000012082460FE06D1EEEE7002F02DCED1B28
:100B80003E4403E0781CA84200DD7D1CB81B00F148
:100B9000010A4FF000472078000703D4AA4501DB83
:100BA0004FF0FF3A0021B7F1004F0DF143088DF8E7
:100BB000431024D002202B23002F01DA7F422D2363
:100BC0000A21021EA0F1010000DC5FB197FBF1FCDD
:100BD00097FBF1F201FB1C7C17460CF1300C08F876
:100BE00001CDEEE7A8F1010003702188090501D5C8
:100BF000452100E06521A0F1010800F8011C0998D9
:100C00000FA9A1EB0807FF1D00B10120411901EB5D
:100C1000EA70A1693844081A401EA0612078C00615
:100C200002D42046FFF756FC099828B1D4E90121E7
:100C30009047206A401C20622078C00622D52046BA
:100C4000FFF748FC1EE0002E04DBB34502DD01A8DF
:100C5000805D00E03020D4E901219047206A401CEB
:100C60002062761CAAF101005FEA000A0AD100F0B6
:100C700067F8C0680168405CD4E901219047206AA8
:100C8000401C2062281EA5F10105DCDC07E0D4E948
:100C9000012118F8010B9047206A401C2062381E81
:100CA000A7F10107F3DC2046FFF72AFC032011B06F
:100CB00043E6000001694A1C02610878704700B5EC
:100CC0008FB0CDE901310021059105497944CDE985
:100CD000031011466846FFF7B5FC0FB000BD0000D9
:100CE000E5FFFFFF0A6802F8010B0A60704710B5C4
:100CF000436913B1AFF3008001E0FFF712FC01205C
:100D000010BD127800F124010A7000224A700122FD
:100D1000EDE711684FF0FF32E9E70000074B70B5CF
:100D20000D467B44FFF7CBFF0446284600F004F94C
:100D300010B14FF0FF3070BD204670BDB38D000084
:100D4000004870474C070024004870472C070024D7
:100D500030B5B0F10A024FEA900E71F100034EEA8D
:100D6000817EB0EB0E0061EB91014FEA101E4EEA5E
:100D7000017E10EB0E0041EB11114FEA102E4EEAEE
:100D8000016E10EB0E0041EB11214FEA104E4EEABE
:100D9000014E10EB0E0041EB1141401841F10001F2
:100DA0004FEAD00040EA41704FEAD10110EB8005D4
:100DB0004FEA810444EA907444EB01046D1944EB5A
:100DC0000404521BA3414FF0000348BF0A3200D570
:100DD00030BD401C41F1000130BD00002DE9F04163
:100DE0001F46044603260168072A01F4006004DB5D
:100DF00008B116A505E016A503E008B115A500E0A9
:100E000015A521F010002060A069C01EA0610FB1DF
:100E1000401EA0612046FFF75DFB4FB1D4E90121E0
:100E200038469047206A401C2062C01C206206E0C1
:100E3000206AFAE7D4E9012115F8010B9047761EE4
:100E4000F8D22046FFF75CFBBDE8F0814E414E0032
:100E50006E616E00494E4600696E66002DE9F047EE
:100E6000814616468AB0334878440DC88DE80D0097
:100E700030487844801C03AC0DC884E80D0041F66E
:100E80009B300844372190FBF1F290FBF1F5A5F17E
:100E9000800501FB12041B3C02D56442012000E0E6
:100EA0000020DFF890A080460027FA44AAF1BE0A8D
:100EB0000DE0E00709D03246684607EB47010AEB30
:100EC000810100F02FFB8DE8070064107F1C002CCF
:100ED000EFD1184F7F44AC3F18E0E80714D007EB80
:100EE00004100DF1180A90E80E008AE80E00C068A0
:100EF000F04201D198190890324606A903A800F0E3
:100F000011FB03AB83E807006D10641C002DE4D1D6
:100F100032466946B8F1000F03A802D000F0EEFA9D
:100F200001E000F0FFFAC9E90001C9F808200AB0A1
:100F3000BDE8F087F8DE0000007B00F0800070471D
:100F4000004870472C0700247546FFF7F9FFAE46AE
:100F500005006946534620F00700854618B020B5C5
:100F6000FFF70EFABDE820404FF000064FF00007F3
:100F70004FF000084FF0000B21F00701AC46ACE841
:100F8000C009ACE8C009ACE8C009ACE8C0098D46AE
:100F9000704710B50446AFF300802046BDE810400E
:100FA000FFF7D9B94FF0013C50F8042B51F8043B3E
:100FB0009A4215D1A2EB0C03934313EACC130BD145
:100FC00050F8042B51F8043B9A4209D1A2EB0C03D0
:100FD000934313EACC13E7D04FF00000704700BFF3
:100FE000D01A01BAB1FA81F101F0180122FA01F028
:100FF000CB40C1F12001DBB2C0B2C01A2CFA01F320
:10100000D11A914311EAC311E6D170470149182062
:10101000ABBEFEE72600020070475FEA400C08BF47
:1010200091F0000F4FEA8C234FEAC12243EA51515D
:101030004FEA1C5018BF00F5F0404FEA300018BFCF
:1010400041F000415FEA6C5C00F02980BCF1FF3F99
:1010500008BF40F080407047130C06BF12044FF0E9
:10106000100C4FF0000C130E04BF12020CF1080C10
:10107000130F04BF12010CF1040C930F04BF920074
:101080000CF1020CD30F04BF52000CF1010C1146FD
:101090004FF00002A0F11F00A0EB0C00704711F010
:1010A000004F08BF704731F000413FF4D5AF0B0C43
:1010B00006BF09044FF0100C4FF0000C0B0E04BFDC
:1010C00009020CF1080C0B0F04BF09010CF1040C10
:1010D0008B0F04BF89000CF1020CCB0F04BF490039
:1010E0000CF1010CCCF12003A0EB0C0022FA03F36D
:1010F00002FA0CF241EA030100F10100704720F00E
:101100007F4C80EA030023F07F47ACEB070303F535
:101110007C5300F0004003F1FF032DE980494FEAC2
:10112000154B09B44FEA144325EA0B4E24EA034851
:101130000FF2042606EB132749083E785FEA3202D5
:1011400003FB0667C7F5000707FB06F64FEA5437AF
:101150004FEAD64606F1020607FB066CCCF1005CAE
:101160004FEA1C472CEA074C07FB06F40CFB06F57C
:1011700004EB15464FEA961634BF00204FF00040AE
:101180004FEAD13706FB07FC4FEA1C4C0CFB0BF770
:10119000D21B03FB0CF761EB07010CFB0EF7B0EB66
:1011A000074072EB17420CFB08F734BFA2EB074273
:1011B000B2EB074261EB17414FEA0C444FEA91074B
:1011C00006FB07FC4FEA1C4C0CFB0BF7B0EBC740CF
:1011D00072EB573203FB0CF734BFA2EBC742B2EB02
:1011E000C74261EB57310CFB0EF7B0EBC70072EB57
:1011F00057720CFB08F734BFA2EBC702B2EBC70271
:1012000061EB5771039F4FEA816141EA921104EB50
:10121000CC044FEAD1374FEA826206FB07FC42EA70
:1012200090124FEA80604FEA1C4C0CFB0BF7D21B6C
:1012300003FB0CF761EB07010CFB0EF7B0EB07406B
:1012400072EB17420CFB08F734BFA2EB0742B2EB7C
:10125000074261EB17414FEA8C554FEA910704EBC7
:101260009C2406FB07FC4FEA1C4C0CFB0BF7B0EB75
:10127000C74072EB573203FB0CF734BFA2EBC742F7
:10128000B2EBC74261EB57310CFB0EF7B0EBC70076
:1012900072EB57720CFB08F734BFA2EBC702B2EB3C
:1012A000C70261EB577115EB4C254FEA816141EAAA
:1012B00092114FEA82624FEAD13742EA901206FB5E
:1012C00007FC44F100044FEA80604FEA1C4C0CFB21
:1012D0000BF7D21B03FB0CF761EB07010CFB0EF7BE
:1012E000B0EB074072EB17420CFB08F734BFA2EBE0
:1012F0000742B2EB074261EB174115EB1C154FEAB1
:10130000813141EA92414FEA823242EA90424FEA09
:1013100080304FEA0C7644F1000448EA03434EEA79
:101320000B484FF0000EB2EB080C71EB030724BF23
:10133000624639464EEB0E0E4FF0000B001852413C
:1013400049414BEB0B0BB2EB080C71EB03077BF144
:10135000000B24BF624639464EEB0E0E4FF0000BD9
:101360000018524149414BEB0B0BB2EB080C71EBEF
:1013700003077BF1000B24BF624639464EEB0E0E8D
:1013800051EA020718BF46F0010616EB0E7655F13A
:10139000000254F1000103D5BDE88901BDE80088D1
:1013A000BDE88901BDE80048B619524141EB010191
:1013B000A3F10103704780807F7E7D7C7B7A797802
:1013C000777676757473727171706F6E6E6D6C6C0A
:1013D0006B6A6A69686867666665646463636261AC
:1013E0006160605F5F5E5E5D5D5C5C5B5B5A5A592D
:1013F0005958585757565655555554545353525299
:101400005251515050504F4F4F4E4E4D4D4D4C4CF0
:101410004C4B4B4B4A4A4A49494948484847474739
:101420004746464645454544444444434343434276
:10143000424242414141002B26D4770021D01CB5C5
:101440004FEA370703B44FF010004FF010014FF090
:1014500000000FBCBDE810400BF1010BBBF1010F08
:1014600008BF5FEA170722BF12F1010211F1010163
:101470004FF0004143F1000300F0004043EA000058
:101480007047F9D35708DAE746EA064613F1400FEA
:101490004FEA16461FDD13F1200FDFBF16430A4641
:1014A000002120335B42C8D0C3F1200746EA06463C
:1014B00002FA07F74FEA164646EA0706C3F1200785
:1014C00022FA03F201FA07F721FA03F14FF00003C1
:1014D00042EA0702B1E746EA020646EA06464FEA52
:1014E000164646EA0106BCBF46EA0646360C4FF0F1
:1014F00000034FF000024FF000019EE72DE9C048C5
:10150000934630B491E8380007C831EA400C48BF30
:1015100034EA430C03D5FFF7F2FDFFF78CFFF0BC74
:10152000BDE800882DE9C048934630B491E8380002
:1015300007C810F0804F08BF13F0804F03D100F0B0
:1015400005F8FFF778FFF0BCBDE8008820F07F4782
:1015500080EA030023F07F4C07EB0C03A3F57C53D8
:1015600000F00040A3F1FE0392F0000F00F0B38002
:1015700095F0000F00F077802DE901494FEA114006
:101580004FEA144621EA004800FB06FC24EA06471D
:1015900008FB06F607FB08F800FB07F718EB064800
:1015A0004CEB164C4FEA124B18EB07484FEA154626
:1015B0004CEB174022EA0B4E0BFB06FC25EA0647D4
:1015C0000EFB06F607FB0EFE0BFB07F71EEB064EA7
:1015D0004CEB164C4FF000061EEB074E4CEB174B36
:1015E00018EB0B0840F1000018EB0E0B58EB00084D
:1015F00040F100008F1A4FF000013CBFC943661B49
:1016000014BFB5EB040C00213CBFC943F61B4FEAE5
:1016100017444EEA8E0E27EA04454FEA1C4704FBA6
:1016200007622CEA074C05FB07F70CFB05F604FBE9
:101630000CFC16EB074642EB174216EB0C4642EB4E
:101640001C421BEB060658EB0202414146EA9E068D
:1016500001D5BDE80189B619524141EB0101A3F161
:101660000103BDE801894FEA14454FEA114724EA16
:10167000054621EA074C05FB07F406FB07F70CFBC0
:1016800006F105FB0CFC11EB074144EB17444FEA54
:10169000124711EB0C4144EB1C4422EA074C05FBBA
:1016A00007F206FB07F70CFB06F605FB0CFC16EB36
:1016B000074642EB174216EB0C4642EB1C456A18F4
:1016C00054F1000148BF7047B619524141EB010186
:1016D000A3F10103704795F0000F37D04FEA114294
:1016E0004FEA144721EA024624EA074C02FB07F1BD
:1016F00006FB07F70CFB06F402FB0CFC14EB07449B
:1017000041EB17414FEA154714EB0C4441EB1C41E8
:1017100025EA074C02FB07F506FB07F70CFB06F66C
:1017200002FB0CFC16EB074645EB174516EB0C4687
:1017300045EB1C42121951F1000148BF7047B61920
:10174000524141EB0101A3F1010370474FEA1445F7
:101750004FEA114724EA054621EA074C05FB07F149
:1017600006FB07F70CFB06F24FF0000605FB0CFC2E
:1017700012EB074241EB174112EB0C4251EB1C41BB
:1017800048BF7047921841EB0101A3F10103704774
:10179000FEE7704772B6FEE72DE9F84F044600F009
:1017A000EFFC00905CB194F8350002280AD080204C
:1017B0006065002084F834000120BDE8F88F012026
:1017C000BDE8F88FB6492068B64EB74F8842DFF8BB
:1017D000DC82DFF8DC92DFF8DCA2DFF8DCB226D0B6
:1017E000B04224D0B84222D0404520D048451ED037
:1017F00050451CD058451AD0B04A904217D0B04A34
:10180000904214D0AF4A904211D0AF4A90420ED0CD
:10181000AE4A90420BD0AE4A904208D0AD4A9042B8
:1018200005D0AD4A904202D0AC4A90420AD102683B
:1018300022F01E0202602068426922F080024261AA
:10184000256804E0026822F00E0202602568206824
:1018500088423ED0B0423CD0B8423AD0404538D021
:10186000484536D0504534D0584532D0934A9042FE
:101870002FD0934A90422CD0924A904229D0924A3B
:10188000904226D0914A904223D0914A904220D053
:10189000904A90421DD0904A90421AD08F4A90426E
:1018A00017D08F4A904214D08E4A904211D08E4A5F
:1018B00090420ED08D4A90420BD08D4A904208D073
:1018C0008C4A904205D08C4A904202D08B4A90427A
:1018D00004D1206E026822F4807202607049206890
:1018E000884226D0B04224D0B84222D0404520D0F1
:1018F00048451ED050451CD058451AD06F498842E3
:1019000017D06F49884214D06E49884211D06E4971
:1019100088420ED06D4988420BD06D49884208D06C
:101920006C49884205D06C49884202D06B49884294
:1019300004D1016821F00101016003E0016821F098
:1019400001010160286810F0010F14D000F018FCAC
:101950000099401A05280AD920206065002084F8E3
:101960003400032084F835000120BDE8F88F286892
:1019700010F0010FEAD14A4A01212068904226D096
:10198000B04224D0B84222D0404520D048451ED095
:1019900050451CD058451AD0484B984217D0484B58
:1019A000984214D0474B984211D0474B98420ED0E2
:1019B000464B98420BD0464B984208D0454B984234
:1019C00005D0454B984202D0444B98420AD1A06DB5
:1019D0004FF03F0C94F85C3003F01F030CFA03F354
:1019E000836007E0A06D94F85C3003F01F0301FAF8
:1019F00003F34360206890423ED0B0423CD0B842EE
:101A00003AD0404538D0484536D0504534D0584576
:101A100032D02A4A90422FD0294A90422CD0294ACB
:101A2000904229D0284A904226D0284A904223D07A
:101A3000274A904220D0274A90421DD0264A904201
:101A40001AD0264A904217D0254A904214D0254AEF
:101A5000904211D0244A90420ED0244A90420BD09A
:101A6000234A904208D0234A904205D0224A90420D
:101A700002D0224A90420BD1626EA06E5060E06E9E
:101A800030B1026822F480720260226F606F506091
:101A9000002084F8340084F83510BDE8F88F000089
:101AA000100002402800024040000240580002405E
:101AB0007000024088000240A0000240B8000240CE
:101AC000100402402804024040040240580402402E
:101AD0007004024088040240A0040240B80402409E
:101AE000085402581C5402583054025844540258A6
:101AF000585402586C540258805402589454025856
:101B00002DE9F05F002808D090F83510022907D0A1
:101B1000802141650120BDE8F09F0120BDE8F09FD4
:101B2000DFF81CE20168874BDFF81CC27145874C67
:101B3000874D884E884FDFF82482DFF82492DFF843
:101B400024A2DFF824B2894A25D0994223D06145E6
:101B500021D0A1421FD0A9421DD0B1421BD0B94211
:101B600019D0DFF80CE2714515D0414513D0494535
:101B700011D0DFF800E271450DD0DFF8FCE17145CE
:101B800009D0DFF8F8E1714505D0514503D059453A
:101B900001D0914232D14FF0040E80F835E0684810
:101BA000814221D099421FD061451DD0A1421BD056
:101BB000A94219D0B14217D0B94215D06C48814220
:101BC00012D0414510D049450ED06A4881420BD011
:101BD0006948814208D06948814205D0514503D007
:101BE000594501D0914204D1086820F001000860F5
:101BF000A3E0086820F0010008609EE0D1F800E052
:101C00002EF00E0EC1F800E0DFF834E101687145F6
:101C100025D0994223D0614521D0A1421FD0A942AD
:101C20001DD0B1421BD0B94219D0DFF844E1714553
:101C300015D0414513D0494511D0DFF838E1714541
:101C40000DD0DFF834E1714509D0DFF830E171459E
:101C500005D0514503D0594501D0914206D1D1F864
:101C600000E02EF0010EC1F800E005E0D1F800E040
:101C70002EF0010EC1F800E0DFF8C4E00168714504
:101C800039D0994237D0614535D0A14233D0A942ED
:101C900031D0B1422FD0B9422DD0354B99422AD004
:101CA000414528D0494526D0324B994223D0324B6A
:101CB000994220D0314B99421DD051451BD05945F6
:101CC00019D0914217D02E4A914214D02D4A9142F8
:101CD00011D02D4A91420ED02C4A91420BD02C4A61
:101CE000914208D02B4A914205D02B4A914202D012
:101CF0002A4A914218D1016E0A6822F480720A6061
:101D0000816D90F85C2002F01F0301229A404A6026
:101D1000426E816E5160C16E31B10A6822F48072E8
:101D20000A60026F416F5160002180F83410012178
:101D300080F83510016D01B188470020BDE8F09FA3
:101D400010000240280002404000024058000240BB
:101D50007000024088000240A000024010040240CF
:101D60002804024088040240A0040240B804024053
:101D7000B80002404004024058040240700402408F
:101D8000085402581C540258305402584454025803
:101D9000585402586C5402588054025894540258B3
:101DA00070B5044600F0ECF90546B4F1FF3F02D0EF
:101DB00004480078044400F0E3F9401BA042FAD341
:101DC00070BD0000240000242DE9F84F04460D46A4
:101DD0000026DFF8DC82DFF8DC92DFF8DCB2B74FF8
:101DE0004C45DFF8DCA220D0BC421ED054451CD0AC
:101DF000A4F1B040B0F5033017D0B0F5806014D036
:101E0000B0F5806011D0B0F580600ED0B0F5806084
:101E10000BD0B0F5806008D0B0F5806005D05C458F
:101E200003D0BB21A7A007F056FE28680104090CC7
:101E300001D0000C03D0BC21A2A007F04CFE6868C2
:101E400008B301281FD011281DD002281BD012284A
:101E500019D0A0F18851B1F5881114D0B1F58011D5
:101E600011D0B1F580110ED011F5F8110BD0B1F5EC
:101E7000801108D0B1F5801105D0032803D0BD2111
:101E800090A007F028FEA86838B1012805D00228E4
:101E900003D0BE218BA007F01EFE286800287DD04D
:101EA0000120296800FA06FA01EA0A07002F00F06B
:101EB000E6806868012805D0022803D0112801D0E7
:101EC00012281ED1E86848B1012807D0022805D0A1
:101ED000032803D0CE217BA007F0FDFDA168700090
:101EE000032282409143EA6802FA00F00843A060AE
:101EF000606820EA0A002979C1F30011B140084363
:101F00006060E06803214FEA460A01FA0AFB20EA12
:101F10000B00A96801FA0AF10843E060686802282A
:101F200001D012283CD14C4523D0A4F1B040B0F5EB
:101F300001301ED0B0F580601BD0B0F5806018D0A5
:101F4000B0F5806015D0B0F5806012D0B0F580603B
:101F50000FD0B0F580600CD0B0F5806009D0B0F53E
:101F6000806006D0B0F5806003D0E62155A007F070
:101F7000B2FD28690F2803D9E72152A007F0ABFD75
:101F8000F00804EB8000026A71070F23C90E8B4032
:101F90009A432B6903FA01F1114300E074E00162F6
:101FA000206820EA0B00297901F0030101FA0AF107
:101FB00008432060686810F0805F60D05048016876
:101FC00041F002010160006800F00200009026F07C
:101FD000030000F1B042D2F80804B1070F23090F43
:101FE0008B4020EA03034C4501D100201DE0A4F101
:101FF000B040B0F5013049D0B0F5806048D0B0F5C0
:10200000806047D0B0F5806046D0B0F5806045D0A4
:10201000B0F5806044D0B0F5806043D0B0F580600A
:1020200042D0B0F5806041D00A2088401843C2F801
:102030000804D8F80000B843696811F4803F00D064
:102040003843C8F80000D8F80400B843696811F4B0
:10205000003F00D03843C8F804004FF0B041086892
:10206000B8436A6812F4801F00D03843086048689B
:10207000B8436A6812F4001F00D038434860761CE9
:102080002868F0407FF40CAFBDE8F88F0120CCE762
:102090000220CAE70320C8E70420C6E70520C4E7FA
:1020A0000620C2E70720C0E70820BEE70920BCE7FA
:1020B000800000580000025800280258000402580E
:1020C000000802582E2E2F447269766572732F53C2
:1020D000544D3332483778785F48414C5F447269D9
:1020E0007665722F5372632F73746D33326837784D
:1020F000785F68616C5F6770696F2E630000000035
:10210000F444025870B506460C461546002C04D11E
:1021100009A040F2AD1107F0DEFC35B1012D04D06D
:1021200005A04FF4D77107F0D6FC0DB1B46170BDB6
:102130002004B06170BD00002E2E2F4472697665B8
:1021400072732F53544D3332483778785F48414C7F
:102150005F4472697665722F5372632F73746D33A7
:1021600032683778785F68616C5F6770696F2E637B
:102170000000000001480068000C70470010005C7F
:1021800001488068704700002400002470B50446B0
:102190000D462068A0F18041B1F5A8410ED0B1F5FF
:1021A00080610BD0B1F5806108D0A0F1B041B1F5EC
:1021B000E05103D064211BA007F08DFC35B1B5F5CB
:1021C000805F03D0652117A007F085FC94F84100DB
:1021D000202801D0022070BD94F8400001281FD0B3
:1021E000012084F84000242084F841002068016820
:1021F00021F0010101602068016821F48051016033
:1022000020680168294301602068016841F00101EC
:102210000160202084F84100002084F8400070BD57
:10222000022070BD2E2E2F447269766572732F5373
:10223000544D3332483778785F48414C5F44726977
:102240007665722F5372632F73746D3332683778EB
:10225000785F68616C5F6932635F65782E63000048
:1022600070B504460D462068A0F18041B1F5A84143
:102270000ED0B1F580610BD0B1F5806108D0A0F12E
:10228000B041B1F5E05103D0922119A007F023FC31
:102290000F2D03D9932116A007F01DFC94F84100DF
:1022A000202801D0022070BD94F8400001281DD0E4
:1022B000012084F84000242084F84100206801684F
:1022C00021F0010101602068016821F4706141EA98
:1022D000052101602068016841F0010101602020B2
:1022E00084F84100002084F8400070BD022070BDD9
:1022F0002E2E2F447269766572732F53544D3332EC
:10230000483778785F48414C5F4472697665722F30
:102310005372632F73746D3332683778785F6861F6
:102320006C5F6932635F65782E63000070B50446A8
:10233000002C00F069802068A0F18041B1F5A8412F
:102340000FD0B1F580610CD0B1F5806109D0A0F15A
:10235000B041B1F5E05104D056A040F2E51107F0CC
:10236000BAFBA068B0F5806F04D352A04FF4F371AC
:1023700007F0B1FBE068012806D0022804D04DA088
:1023800040F2E71107F0A7FB206938B1B0F5004F24
:1023900004D04FF4F47147A007F09DFB6069FF285B
:1023A00004D944A040F2E91107F095FBA06990B16F
:1023B000012810D002280ED003280CD004280AD0FF
:1023C000052808D0062806D0072804D039A04FF4E5
:1023D000F57107F080FBE06938B1B0F5002F04D04B
:1023E00034A040F2EB1107F076FB206A38B1B0F56B
:1023F000003F04D04FF4F6712EA007F06CFB94F868
:102400004100002510B106E0012070BD84F8405065
:10241000204600F063FA242084F841002068016817
:1024200021F0010101602168606820F0706008619E
:102430002068816821F400418160E068012808D0AB
:102440002168A06840F404408860E068022806D053
:1024500009E02168A06840F400408860F5E7216841
:102460004FF4006048602068416841F4004141F049
:10247000007141602068C16821F40041C160616958
:1024800020690843A16940EA01202168C860216AE7
:10249000E0690843216808602068016841F0010193
:1024A00001606564202084F84100256384F842506F
:1024B000002070BD2E2E2F447269766572732F53E3
:1024C000544D3332483778785F48414C5F447269E5
:1024D0007665722F5372632F73746D333268377859
:1024E000785F68616C5F6932632E63002DE9FF4F8E
:1024F00083B0044693469A46DDF84490DDF8408068
:10250000129FBAF1010F07D0BAF1020F04D066A0F2
:1025100040F6821107F0DFFA94F84100202803D03A
:1025200007B00220BDE8F08FB8F1000F18D0B9F164
:10253000000F15D094F84000012818D0012084F82D
:102540004000FFF71DFE0546204601220095192395
:10255000D10304F0A7FC70B107B00120BDE8F08FF3
:102560004FF40070606407B00120BDE8F08F07B041
:102570000220BDE8F08F222084F84100402084F83A
:10258000420000266664C4F82480A4F82A9066639A
:10259000534604995A4620460097019504F096FB4D
:1025A00028B184F8406007B00120BDE8F08F618D4C
:1025B0004FF0FF084A48FF290AD94246A4F828806C
:1025C00004994FF080730090204604F0FBFB0AE072
:1025D000618D21854FF000730090204694F82820EB
:1025E000049904F0EFFB00223B46042120460095AD
:1025F00004F058FC18B107B00120BDE8F08F206846
:10260000406A616A0870606A401C6062208D401EEA
:1026100080B22085618D491E6185618D29B320BB03
:1026200000223B4680212046009504F03BFC18B177
:1026300007B00120BDE8F08F608DFF280AD942461F
:10264000A4F8288004994FF080732046009604F087
:10265000B9FB0AE0608D20854FF00073009620469C
:1026600094F82820049904F0ADFB608D0028BAD1BD
:102670002A463946204604F04BFC18B107B0012029
:10268000BDE8F08F20682021C16120684268154BA9
:102690001A40426084F8411084F8426084F8406037
:1026A00007B00020BDE8F08F2E2E2F4472697665AA
:1026B00072732F53544D3332483778785F48414C0A
:1026C0005F4472697665722F5372632F73746D3332
:1026D00032683778785F68616C5F6932632E6300B7
:1026E0000024008000E800FE2DE9FF4F83B004467F
:1026F00093469A46DDF84490DDF84080129FBAF187
:10270000010F07D0BAF1020F04D065A040F6FB011B
:1027100007F0E1F994F84100202803D007B0022027
:10272000BDE8F08FB8F1000F18D0B9F1000F15D047
:1027300094F84000012818D0012084F84000FFF7E9
:102740001FFD05462046012200951923D10304F000
:10275000A9FB70B107B00120BDE8F08F4FF4007005
:10276000606407B00120BDE8F08F07B00220BDE82B
:10277000F08F212084F84100402084F84200002698
:102780006664C4F82480A4F82A90666353460499CA
:102790005A4620460097019504F0D6FA28B184F8ED
:1027A000406007B00120BDE8F08F608D4FF0FF085A
:1027B000FF280AD94246A4F8288004994FF0807374
:1027C0002046009604F0FEFA0AE0608D20854FF066
:1027D00000730096204694F82820049904F0F2FA39
:1027E0002A463946204604F0BFFB18B107B0012045
:1027F000BDE8F08F606A216800788862606A401CDA
:102800006062608D401E6085208D401E80B22085F4
:10281000618D29B320BB00223B46802120460095D4
:1028200004F040FB18B107B00120BDE8F08F608DC7
:10283000FF280AD94246A4F8288004994FF08073F3
:102840002046009604F0BEFA0AE0608D20854FF025
:1028500000730096204694F82820049904F0B2FAF8
:10286000608D0028BCD12A463946204604F050FB32
:1028700018B107B00120BDE8F08F20682021C161A8
:1028800020684268144B1A40426084F8411084F872
:10289000426084F8406007B00020BDE8F08F00007F
:1028A0002E2E2F447269766572732F53544D333236
:1028B000483778785F48414C5F4472697665722F7B
:1028C0005372632F73746D3332683778785F686141
:1028D0006C5F6932632E630000E800FE10B5B6B08D
:1028E000044614212FA8FDF749FFBC216846FDF7D7
:1028F00045FF18492068884229D10820009000240B
:102900006846209400F0A2FB08B1FEF743FF12488E
:10291000016841F00201016000682FAB122100F054
:10292000020034904FF44070042283E813000B48F7
:102930002FA9CDE93242FFF747FA0748083001686E
:1029400041F400110160006800F40010349036B0CA
:1029500010BD000000540040E0440258000402583A
:102960000248816802781144816070472400002485
:1029700010B5032000F0F0F801F07EFC0F4A11685A
:10298000C1F303230E49CB5C03F01F03D840126848
:1029900002F00F02895C0B4A01F01F0120FA01F1DD
:1029A000116009490860002000F010F808B101200A
:1029B00010BD00F031F8002010BD0000184402588E
:1029C0004AEC0008340000243000002470B50446AE
:1029D0000F4D2A78002A0CD04FF47A700D49B0FBC5
:1029E000F2F00968B1FBF0F002F01AFD18B1012015
:1029F00070BD012070BD102C07D200222146501E50
:102A000000F04EF86C60002070BD012070BD000029
:102A10002400002430000024064882B0016841F000
:102A200002010160006800F002000090052002B081
:102A300000F092B8F444025810B50446002C03DAB2
:102A4000BE2108A007F047F8002C0ADB012104F0A2
:102A50001F0001FA00F06109890001F1E021C1F8CD
:102A6000000110BD2E2E2F447269766572732F53AC
:102A7000544D3332483778785F48414C5F4472692F
:102A80007665722F5372632F73746D3332683778A3
:102A9000785F68616C5F636F727465782E630000A5
:102AA00070B504460D461646102E03D3AA211AA06F
:102AB00007F011F8102D03D3AB2117A007F00BF886
:102AC00024480068C0F30223C3F1070CBCF1040FD3
:102AD00001D94FF0040C181D072801D2002000E096
:102AE000D81E012101FA0CF2521E2A40824001FA3E
:102AF00000F0401E30401043002C05DB04F1E021C3
:102B0000000181F8000470BD04F00F0101F1E02123
:102B1000000181F8140D70BD2E2E2F447269766568
:102B200072732F53544D3332483778785F48414C95
:102B30005F4472697665722F5372632F73746D33BD
:102B400032683778785F68616C5F636F727465783C
:102B50002E6300000CED00E010B50446072C0BD0EE
:102B6000062C09D0052C07D0042C05D0032C03D04B
:102B7000922109A006F0AFFF04F00700154A116882
:102B80004FF6FF03194041EA002040F0FD7040F08D
:102B90008060106010BD00002E2E2F447269766593
:102BA00072732F53544D3332483778785F48414C15
:102BB0005F4472697665722F5372632F73746D333D
:102BC00032683778785F68616C5F636F72746578BC
:102BD0002E6300000CED00E070B50446022C06D018
:102BE000012C04D017A040F23F1106F074FF2448D6
:102BF000016811F0040F0DD0016821F00701214395
:102C00000160FFF7BDFA04461E4D286810F4005F0E
:102C100009D014E0006800F00700A04201D00120B4
:102C200070BD002070BDFFF7ABFA001BB0F57A7FD6
:102C300001D9012070BD286810F4005FF3D0002096
:102C400070BD00002E2E2F447269766572732F536B
:102C5000544D3332483778785F48414C5F4472694D
:102C60007665722F5372632F73746D3332683778C1
:102C7000785F68616C5F7077725F65782E630000C3
:102C80000C4802580448025810B501F0A9FA054949
:102C90000968054AC1F30211515C01F01F01C840E7
:102CA00010BD0000204402584AEC000869490A6837
:102CB00002F003020968C1F30531674B1B68C3F3D7
:102CC0000013DFF898C1DCF800C0CCF3CC0C1CFB7F
:102CD00003F300EE103AB8EE400A002972D09FEDDF
:102CE000601A604B002AF7EE000A46D0DFED5E1A4C
:102CF000012A68D0022A67D002EE101A1968F8EE8D
:102D0000422A81EEA22AC1F3080101EE901AF8EEE0
:102D1000611A40EE011A31EEA00A22EE000A19688B
:102D2000C1F3462101EE101AB8EE411A31EE201A15
:102D3000C0EE011ABCEEE11A80ED001A1968C1F369
:102D4000064101EE101AB8EE411A31EE201AC0EE1B
:102D5000011ABCEEE11A80ED011A1968C1F306618F
:102D600001EE101AB8EE411A71EE200A80EE201A18
:102D7000BCEEC10A80ED020A70473C4AD2F800C09E
:102D80001CF0200F21D01268DFF8E4C0C2F3C102AA
:102D90002CFA02F201EE902AF8EE612A01EE901A66
:102DA0001968F8EE611A82EEA12AC1F3080101EE5A
:102DB000901AF8EE611A40EE011A31EEA00A22EEE6
:102DC000000AACE741E016E029E001EE901ADFEDE1
:102DD000292A1968F8EE611A82EEA12AC1F30801C6
:102DE00001EE901AF8EE611A40EE011A31EEA00AD7
:102DF00022EE000A93E702EE101A1968F8EE422A52
:102E000081EEA22AC1F3080101EE901AF8EE611AD0
:102E100040EE011A31EEA00A22EE000A7FE701EE31
:102E2000901ADFED152A1968F8EE611A82EEA12AD0
:102E3000C1F3080101EE901AF8EE611A40EE011A92
:102E400031EEA00A22EE000A69E70021016041602C
:102E500081607047284402582C4402583C44025870
:102E600000000039384402580024744A00440258D3
:102E70000090D0030024744C001B374B69490A684A
:102E800002F003020968C1F30551674B1B68C3F3E5
:102E90000023DFF898C1DCF800C0CCF3CC0C1CFB9D
:102EA00003F300EE103AB8EE400A002972D09FED0D
:102EB000601A604B002AF7EE000A46D0DFED5E1A7A
:102EC000012A68D0022A67D002EE101A1968F8EEBB
:102ED000422A81EEA22AC1F3080101EE901AF8EE0F
:102EE000611A40EE011A31EEA00A22EE000A1968BA
:102EF000C1F3462101EE101AB8EE411A31EE201A44
:102F0000C0EE011ABCEEE11A80ED001A1968C1F397
:102F1000064101EE101AB8EE411A31EE201AC0EE49
:102F2000011ABCEEE11A80ED011A1968C1F30661BD
:102F300001EE101AB8EE411A71EE200A80EE201A46
:102F4000BCEEC10A80ED020A70473C4AD2F800C0CC
:102F50001CF0200F21D01268DFF8E4C0C2F3C102D8
:102F60002CFA02F201EE902AF8EE612A01EE901A94
:102F70001968F8EE611A82EEA12AC1F3080101EE88
:102F8000901AF8EE611A40EE011A31EEA00A22EE14
:102F9000000AACE741E016E029E001EE901ADFED0F
:102FA000292A1968F8EE611A82EEA12AC1F30801F4
:102FB00001EE901AF8EE611A40EE011A31EEA00A05
:102FC00022EE000A93E702EE101A1968F8EE422A80
:102FD00081EEA22AC1F3080101EE901AF8EE611AFF
:102FE00040EE011A31EEA00A22EE000A7FE701EE60
:102FF000901ADFED152A1968F8EE611A82EEA12AFF
:10300000C1F3080101EE901AF8EE611A40EE011AC0
:1030100031EEA00A22EE000A69E70021016041605A
:1030200081607047284402582C4402584444025896
:1030300000000039404402580024744A00440258F9
:103040000090D0030024744C001B374B2DE9F84F3F
:10305000044600250026206810F0006FFE4FDFF8C0
:10306000FC830DD0606EB8B1B0F5801F19D0B0F5FB
:10307000001F1CD0B0F5401F00D00125F5B12E4631
:10308000208810F4807F37D0606D052831D2DFE8CA
:1030900000F01E2329313100386840F400303860D8
:1030A000ECE70221201D04F04DFD0546E6E7022174
:1030B00004F1240004F052FE0546DFE7D8F80000D2
:1030C000616E20F440100843C8F80000D8E7386863
:1030D00040F4003038600DE00021201D04F032FD86
:1030E000054607E0002104F1240004F037FE054600
:1030F00000E0012565B12E46208810F4007F18D02D
:10310000A06D802831D00CDC20B340280ED126E001
:10311000D8F80000616D20F007000843C8F80000EF
:10312000EAE7C02803D0B0F5807F00D001251DB3A9
:103130002E462088DFF8289310F4806F2ED0D4F824
:10314000A400B0F5800F44D01FDCB0B3B0F5001F71
:1031500021D138E0386840F400303860E7E70021DA
:10316000201D04F0EFFC0546E1E7002104F12400F6
:1031700004F0F4FD0546DAE7D8F80000A16D20F46C
:10318000E0700843C8F80000D3E7B0F5C00F03D0E3
:10319000B0F5000F00D0012515B32E46208810F49D
:1031A000006F30D0D4F8A800B0F1007F55D021DCFA
:1031B000F0B3B0F1807F23D149E0FFE7386840F4F5
:1031C00000303860E8E70021201D04F0BBFC054614
:1031D000E2E7002104F1240004F0C0FD0546DBE72E
:1031E000D9F80000D4F8A41020F460000843C9F80E
:1031F0000000D3E7B0F1407F03D0B0F1806F00D082
:1032000001258DB32E46206810F0007F0AD0A06CF7
:1032100030B1102833D0202837D0302800D00125F5
:1032200095B32E46208810F4805F46D0E06D00E014
:1032300008E0B0F5005F5CD036DCA0B3B0F5805F8D
:1032400038D150E0386840F400303860D9E70021C8
:10325000201D04F077FC0546D3E7002104F124008B
:1032600004F07CFD0546CCE7FFE7D9F80000D4F870
:10327000A81020F0E0600843C9F80000C3E73868F0
:1032800040F400303860CBE705E00221201D04F057
:1032900059FC0546C4E773480168A26C21F030016F
:1032A00011430160BEE719E0B0F5405F03D0B0F50F
:1032B000804F00D001251DB32E46208810F4005FFA
:1032C00030D0206EB0F5403F2AD022DC40B3B0F5BC
:1032D000803F39D0B0F5003F21D13BE0386840F461
:1032E00000303860E7E70021201D04F02BFC054684
:1032F000E1E7002104F1240004F030FD0546DAE79F
:10330000D8F80000E16D20F4E0400843C8F8000060
:10331000D3E7B0F5802F03D0B0F5A02F00D0012562
:10332000FDB12E46208810F4804F2CD0D4F8AC008C
:10333000B0F1405F25D01DDC18B3B0F1805F7DD0C7
:10334000B0F1005F1CD138E10121201D04F0FAFB2F
:103350000546E5E7012104F1240004F0FFFC0546E1
:10336000DEE7D8F80000216E20F4E0200843C8F81A
:103370000000D7E7B0F1804F03D0B0F1A04F00D0EC
:103380000125E5B32E46208810F4004F0AD0E06EE8
:1033900030B1B0F1805F5ED0B0F1005F66D0012542
:1033A00075B32E46206810F0807F0AD0606C30B173
:1033B00001287DD002287CD0032800D00125E5B368
:1033C0002E462068DFF8A0A010F4800F72D0D4F849
:1033D000B000B0F5807F6ED0B0F5007F6BD0B0F557
:1033E0000C5F68D0B0F54C5F65D0B0F5864F62D009
:1033F000B0F5A64F5FD0B0F5C64F5CD001E0E3E07A
:10340000F7E0B0F5E64F56D0B0F5034F53D0B0F526
:10341000134F50D0B0F5234F4DD0B0F5334F4AD0B5
:10342000B0F5434F47D0B0F5534F44D0B0F5634F9C
:1034300041D0B0F5734F3ED001E0EEE0B7E0A0F52B
:103440008031B1F5407136D0B1F5805133D0B1F54E
:10345000805130D00BE0C1E02C4402585044025857
:10346000584402584C44025810440258BBE0B1F58D
:10347000805120D0B1F580511DD0B1F580511AD0C6
:10348000B1F5805117D0B1F5805114D0B1F580510C
:103490007ED0B1F580517BD0B1F5805178D0B1F5B7
:1034A000805175D0B1F5805172D0B1F5805103E0F3
:1034B000A8E0ACE0C8E06BE06AD0B1F5805167D01D
:1034C000B1F5805164D0B1F5805161D0B1F5805132
:1034D0005ED0B1F580515BD0B1F5805158D0B1F5D7
:1034E000805155D0B1F5805152D0B1F580514FD0B7
:1034F000B1F580514CD0B1F5805149D0B1F5805132
:1035000046D0B1F5805143D0B1F5805140D0B1F5EE
:1035100080513DD0B1F580513AD0B1F5805137D0CE
:10352000B1F5805134D0B1F5805131D0B1F5805131
:103530002ED0B1F580512BD0B1F5805128D0B1F506
:10354000805125D0B1F5805122D0B1F580511FD0E6
:10355000B1F580511CD0B1F5805119D0B1F5805131
:1035600016D0B1F5805113D0B1F5805110D0B1F51E
:1035700080510DD0B1F580510AD0B1F5805107D0FE
:10358000B1F5805104D0EBA040F27F3106F0A3FAF0
:10359000F748006840F48071F5480160FEF7F0FDDF
:1035A0008346F348006810F4807F3ED04AE0012152
:1035B000201D04F0C7FA0546E3E6012104F12400CA
:1035C00004F0CCFB0546DCE6D9F80000D4F8AC10DA
:1035D00020F0E0400843C9F80000D4E6386840F421
:1035E00000303860DCE60121201D04F0ABFA05460E
:1035F000D6E6D8F80000E16E20F040500843C8F845
:103600000000CFE6386840F400303860D7E6022189
:10361000201D04F097FA0546D1E6D6480168626C91
:1036200021F0030111430160CBE6FEF7A9FDA0EBF9
:103630000B00642801D9032504E0CD48006810F48C
:10364000807FF2D085B12E462078DFF82CB310F0C1
:10365000010F71D0A06F18286CD066DCC8B30828A1
:1036600076D0102865D179E0DFF810B3DBF80000E0
:10367000B4F8B01000F4407001F44071884211D0E9
:10368000DBF8000020F44070DBF8001041F48031DA
:10369000CBF80010DBF8001021F48031CBF80010DB
:1036A000CBF80000D4F8B000B0F5807F17D1FEF75A
:1036B00067FD0090DBF8000010F0020F0FD1FEF75D
:1036C0005FFD0099411A41F28830814202D90325F9
:1036D00005E02FE0DBF8000010F0020FEFD00DB195
:1036E0002E46B1E7D4F8B0004FF4407181430FD0BB
:1036F000DAF8000020F47C50CAF80000DBF8000083
:10370000B4F8B010C1F30B010843CBF800009BE7FD
:10371000DAF8001020F4407020F0704021F47C5161
:1037200041EA1010CAF80000E8E7202802D0282853
:1037300000D00125CDB12E46207810F0020F2DD0FB
:10374000606F062827D2DFE800F027191F272727F8
:103750000121201D04F0F6F90546EBE7012104F1F3
:10376000240004F0FBFA0546E4E7DBF80000A16F53
:1037700020F038000843CBF80000DDE70121201DD0
:1037800004F0E0F9054607E0012104F1240004F00B
:10379000E5FA054600E001256DB12E46207810F0CF
:1037A000040F21D0D4F8900006281AD2DFE800F0E8
:1037B0001A0C121A1A1ADBF80000616F20F00700C9
:1037C0000843CBF80000E9E70121201D04F0BAF915
:1037D000054607E0012104F1240004F0BFFA054684
:1037E00000E0012595B12E46207810F0200F20D062
:1037F000D4F88C00B0F1405F19D011DCB8B1B0F151
:10380000805F28D0B0F1005F10D12AE0D9F8000025
:10381000D4F8901020F007000843C9F80000E3E74F
:10382000B0F1804F03D0B0F1A04F00D00125FDB121
:103830002E46207810F0400F2DD0D4F89800B0F527
:10384000406F26D01EDC20B3B0F5806F35D0B0F5C8
:10385000006F1DD137E00021201D04F073F90546EB
:10386000E5E7022104F1240004F078FA0546DEE7DA
:10387000DBF80000D4F88C1020F0E0400843CBF8CF
:103880000000D6E7B0F5805F03D0B0F5A05F00D0B0
:103890000125FDB12E46207810F0800F2DD0D4F8F0
:1038A0009C00B0F5C04F26D01EDC20B3B0F5005F01
:1038B00066D0B0F5804F1DD168E00021201D04F0D6
:1038C00041F90546E5E7022104F1240004F046FA37
:1038D0000546DEE7D9F80000D4F8981020F4E0504F
:1038E0000843C9F80000D6E7B0F5004F03D0B0F5A3
:1038F000204F00D00125DDB12E46207810F0080FB2
:1039000065D0D4F88000B0F5805F0BD0B0F5005FD3
:1039100008D038B1B0F5405F04D006A040F20F5196
:1039200006F0D9F8D4F88000B0F5805F3FD045E0CC
:1039300033E025E02E2E2F447269766572732F5383
:10394000544D3332483778785F48414C5F44726950
:103950007665722F5372632F73746D3332683778C4
:10396000785F68616C5F7263635F65782E630000E7
:10397000004802584C4402585444025870440258BB
:103980000021201D04F0DEF80546B4E7022104F111
:10399000240004F0E3F90546ADE7D9F80000D4F8B7
:1039A0009C1020F460400843C9F80000A5E70221FC
:1039B00004F1240004F0D2F900B10126DBF8000084
:1039C000D4F8801020F440500843CBF80000207851
:1039D00010F0100F26D0D4F89400B0F5807F0CD0F2
:1039E000B0F5007F09D040B1B0F5405F05D040F29E
:1039F0002251AFF2C00006F06EF8D4F89400B0F592
:103A0000807F06D1022104F1240004F0A7F900B15F
:103A10000126D9F80000D4F8941020F4407008432F
:103A2000C9F80000206810F4002F0BD0D4F8A000D3
:103A3000F0B3B0F5803F69D0B0F5003F00D001256C
:103A4000BDB32E46206810F4802F0DD0D4F884002A
:103A5000B0F5801F7CD0B0F5001F7AD0B0F5401FC4
:103A600000D0012535B32E46206810F4803F12D0D7
:103A7000E06C40B1B0F5803F05D04FF4B161AFF2DA
:103A80004C1006F028F8E06CF0B3B0F5803F7DD024
:103A90000125D5B32E46206810F0005F06D0022124
:103AA00004F1240004F05AF900B10126206802E074
:103AB000BBE0C7E0DCE010F4003F0DD0E06F48B1A0
:103AC000B0F5807F7DD0B0F5007F03D0B0F5407FAA
:103AD00000D00125DDB32E46206810F4801F12D0DF
:103AE000206F40B1B0F1004F05D040F2E751AFF286
:103AF000BC1005F0F0FFD8F80000216F20F0004066
:103B00000843C8F8000002E0BDE0C7E093E0206889
:103B100010F0805F14D0D4F8B40040B1B0F5804FFD
:103B200005D040F2F151AFF2F41005F0D4FFDAF80D
:103B30000000D4F8B41020F480400843CAF8000014
:103B4000206810F4001F16D0A06E60B102E0B2E051
:103B500082E086E0B0F1807F05D040F2FB51AFF209
:103B60002C2005F0B8FFD8F80000A16E20F080707E
:103B70000843C8F80000206810F0804F1AD0D4F82D
:103B8000B80050B1B0F5004F07D000E080E040F23F
:103B90001161AFF2602005F09EFFDAF8000020F41A
:103BA0000040CAF80000DAF80000D4F8B810084362
:103BB000CAF80000206810F0004F16D0206D68B1E0
:103BC00000E073E0B0F1805F08D0B0F1005F05D095
:103BD00040F21B61AFF2A42005F07DFF3C48016874
:103BE000226D21F0405111430160206810F4000F54
:103BF00017D0D4F8880058B1B0F5800F08D0B0F5D0
:103C0000000F05D040F22561AFF2D82005F063FF28
:103C1000DBF80000D4F8881020F440000843CBF80B
:103C200000007EB30120BDE8F88F0021201D03F0C5
:103C300089FF054604E7022104F1240004F08EF810
:103C40000546FDE6D9F80000D4F8A01020F4403075
:103C50000843C9F80000F5E6386840F400303860E1
:103C600000E7012104F1240004F078F80546F9E6A4
:103C7000DBF80000D4F8841020F440100843CBF89F
:103C80000000F1E620E0386840F40030386000E7DA
:103C90000221201D03F056FF0546FAE60C48016894
:103CA000E26C21F4803111430160F4E6386840F49D
:103CB000003038600EE7DBF80000E16F20F4407060
:103CC0000843CBF8000007E70020BDE8F88F0000AC
:103CD0004C4402582DE9F05F04460D46002C44D0B8
:103CE0002068401E3E2804D9FFA040F2863105F02E
:103CF000F2FE15B3012D20D0022D1ED0032D1CD0B5
:103D0000042D1AD0052D18D0062D16D0072D14D04D
:103D1000082D12D0092D10D00A2D0ED00B2D0CD04D
:103D20000C2D0AD00D2D08D00E2D06D00F2D04D04D
:103D3000EDA040F2873105F0CEFEDFF8E483D8F83D
:103D4000000000F00F00A84212D2D8F8000020F0C6
:103D50000F002843C8F80000D8F8000000F00F005A
:103D6000A84205D00120BDE8F09F0120BDE8F09FEA
:103D70002078EC4E10F0040F19D02069316801F062
:103D80007001884213D960B140280AD0502808D069
:103D9000602806D0702804D0D3A040F2A33105F0EB
:103DA0009AFE3068216920F0700008433060207866
:103DB000DD4F10F0080F19D06069396801F070010B
:103DC000884213D960B140280AD0502808D0602812
:103DD00006D0702804D0C4A040F2B53105F07BFEB7
:103DE0003868616920F0700008433860207810F06E
:103DF000100F1DD0A069396801F4E061884217D91D
:103E000080B1B0F5806F0DD0B0F5A06F0AD0B0F5DD
:103E1000C06F07D0B0F5E06F04D0B3A040F2C63158
:103E200005F059FE3868A16920F4E0600843386065
:103E30002078DFF8F89210F0200F1CD0E069D9F854
:103E4000001001F07001884215D960B140280AD0F5
:103E5000502808D0602806D0702804D04FF476711E
:103E6000A1A005F038FED9F80000E16920F070004B
:103E70000843C9F80000207810F0020F21D0E06854
:103E8000316801F00F0188421BD9A0B1082812D077
:103E9000092810D00A280ED00B280CD00C280AD0E4
:103EA0000D2808D00E2806D00F2804D08EA040F28E
:103EB000EB3105F010FE3068E16820F00F00084398
:103EC0003060207810F0010F7ED0A068E0B1B0F52E
:103ED000006F19D0B0F5106F16D0B0F5206F13D069
:103EE000B0F5306F10D0B0F5406F0DD0B0F5506F19
:103EF0000AD0B0F5606F07D0B0F5706F04D07AA02B
:103F000040F2FB3105F0E7FD6068012809D040B1BF
:103F1000022806D0032804D04FF47F7172A005F068
:103F2000DAFD3068A16820F4706008433060606892
:103F30007F49022808D003280DD0012812D0096833
:103F400011F0040F35D011E0096811F4003F0DD1D4
:103F50000120BDE8F09F096811F0007F06D1012023
:103F6000BDE8F09F096811F4807F1FD0DFF8C4B16D
:103F7000DBF8001021F007010843CBF80000FEF742
:103F8000FFF88246DBF80000616800F03800B0EB13
:103F9000C10F19D0FEF7F4F8A0EB0A0141F2883006
:103FA000814209D90320BDE8F09F0DE00120BDE862
:103FB000F09F0120BDE8F09FDBF80000616800F091
:103FC0003800B0EBC10FE5D1207810F0020F21D0FE
:103FD000E068316801F00F0188421BD2A0B10828C7
:103FE00012D0092810D00A280ED00B280CD00C288B
:103FF0000AD00D2808D00E2806D00F2804D03AA0E9
:1040000040F23D4105F067FD3068E16820F00F00A7
:1040100008433060D8F8000000F00F00A8420FD924
:10402000D8F8000020F00F002843C8F80000D8F8A6
:10403000000000F00F00A84202D00120BDE8F09F70
:10404000207810F0040F19D02069316801F0700158
:10405000884213D260B140280AD0502808D0602886
:1040600006D0702804D020A040F25E4105F033FD58
:104070003068216920F0700008433060207810F02B
:10408000080F19D06069396801F07001884213D2B5
:1040900060B140280AD0502808D0602806D0702887
:1040A00004D04FF48E6110A005F015FD38686169E9
:1040B00020F0700008433860207810F0100F48D0CE
:1040C000A069396801F4E061884242D2A0B3B0F53A
:1040D000806F38D0B0F5A06F35D0B0F5C06F32D05A
:1040E000B0F5E06F2FD028E02E2E2F447269766550
:1040F00072732F53544D3332483778785F48414CB0
:104100005F4472697665722F5372632F73746D33D7
:1041100032683778785F68616C5F7263632E630022
:1041200000200052184402581C44025820440258EF
:10413000004402581044025805E040F28241AFF2B8
:10414000580005F0C8FC3868A16920F4E060084315
:104150003860207810F0200F1DD0E069D9F80010E9
:1041600001F07001884216D268B140280BD0502867
:1041700009D0602807D0702805D040F29441AFF2F2
:10418000980005F0A8FCD9F80000E16920F0700063
:104190000843C9F8000000F06FF83168C1F303224A
:1041A0000B498A5C02F01F02D040326802F00F0215
:1041B000895C084A01F01F0120FA01F111600649EB
:1041C000086006480068BDE8F05FFEF7FFBB00002E
:1041D0004AEC0008340000243000002428000024A9
:1041E0004DF804ED00F048F80B4A11680B4BC1F391
:1041F0000321595C01F01F0120FA01F11068084AFF
:1042000000F00F00185C00F01F0021FA00F01060B1
:10421000044A11605DF804FB184402584AEC000897
:1042200034000024300000244DF804EDFFF7D8FFDF
:1042300005490968054AC1F30211515C01F01F01EB
:10424000C8405DF804FB00001C4402584AEC00081A
:104250004DF804EDFFF7C4FF05490968054AC1F3AD
:104260000221515C01F01F01C8405DF804FB000011
:104270001C4402584AEC00084DF8044D6948006897
:10428000DFF8A4C1694B10F038014ED008294FEA7D
:104290002C1047D0102959D0182943D164480168FF
:1042A00001F003010068C0F30510624A126802F0D1
:1042B0000102614C2468C4F3CC0414FB02F200EE4A
:1042C000102AB8EE400A00287BD0DFED5C0A5C4A79
:1042D000B7EE001AA9B39FED5B2A012974D0022919
:1042E00071D001EE900A1068F8EE611AC2EE212A30
:1042F000C0F3080001EE900AF8EE611A40EE201AB1
:1043000031EE810A22EE800A1068C0F34620401C7C
:1043100000EE900AF8EE600A80EE201ABCEEC10AA8
:1043200010EE100A5DF8044B7047186810F0200F6B
:1043300008D018685DF8044BC0F3C1002CFA00F0F7
:10434000704707E05DF8044B604670473E485DF8F3
:10435000044B7047196811F0200F1CD01968C1F385
:10436000C1012CFA01F101EE901AF8EE612A01EE7A
:10437000900A1068F8EE611A82EEA12AC0F30800D4
:1043800001EE900AF8EE611A40EE201A31EE810A31
:1043900022EE000AB8E701EE900ADFED2C2A106841
:1043A000F8EE611A82EEA12AC0F3080001EE900A2D
:1043B000F8EE611A40EE201A31EE810A22EE000A70
:1043C000A2E72BE000E013E001EE900A1068F8EE9F
:1043D000611AC2EE212AC0F3080001EE900AF8EE3D
:1043E000611A40EE201A31EE810A22EE800A8BE734
:1043F00001EE900ADFED162A1068F8EE611A82EEDF
:10440000A12AC0F3080001EE900AF8EE611A40EE0E
:10441000201A31EE810A22EE000A75E75DF8044B9E
:1044200000207047104402580090D0030044025806
:10443000284402582C4402583444025800000039E1
:10444000304402580024744A001BB7000024744C06
:10445000001B374B2DE9F05F0446002C05D0206887
:10446000D0B110F0010F17D102E00120BDE8F09F9C
:1044700010F0020F10D110F0100F0DD110F0080F36
:104480000AD110F0040F07D110F0200F04D1F4A0CE
:1044900040F2A31105F01FFB2078DFF8FC83FF4FEB
:1044A00010F0010FFE4D74D0606850B1B0F5803F40
:1044B00007D0B0F5A02F04D04FF4D471E8A005F0D8
:1044C0000AFBD8F8000000F03800396810281FD027
:1044D000182803D101F00300022819D06068B0F554
:1044E000803F1ED010B3B0F5A02F28D0286820F44C
:1044F00080302860286820F480202860606878B3C5
:10450000FDF73EFE0646286810F4003F20D040E04C
:10451000286810F4003F3CD0606830BB0120BDE843
:10452000F09F286840F480302860E7E7286820F48E
:1045300080302860286820F480202860DEE7286822
:1045400040F480202860286840F480302860D5E757
:10455000FDF716FE801B642803D90320BDE8F09FF9
:1045600004E0286810F4003FF2D012E0FDF708FEE6
:104570000646286810F4003F0BD0FDF701FE801BB3
:10458000642802D90320BDE8F09F286810F4003F9A
:10459000F3D1207841F20309C24E10F0020F43D04C
:1045A000E06860B101280AD0092808D0112806D097
:1045B000192804D04FF4EE71A9A005F08CFA2069F7
:1045C0007F2804D9A6A040F2DD1105F084FAD8F8BE
:1045D000000000F03800396898B1182802D111F0B5
:1045E000030F0ED0E06890B3296821F01901084349
:1045F0002860FDF7C5FD8246286810F0040F27D01B
:1046000033E0286810F0040F01D0E06868B1FDF7CE
:10461000B1FD484513D82069402809D0316821F4FC
:104620007C3141EA0030306054E00120BDE8F09F69
:10463000306820F47C3040F4003030604AE030686C
:10464000217C20F0FE4040EA0160306042E029E039
:10465000FDF796FDA0EB0A00022802D90320BDE871
:10466000F09F286810F0040FF2D0FDF783FD484555
:1046700010D82069402806D0316821F47C3141EA05
:104680000030306026E0306820F47C3040F40030A8
:1046900030601FE03068217C20F0FE4040EA01607D
:1046A000306017E0286820F001002860FDF768FD01
:1046B0008246286810F0040F0CD0FDF761FDA0EBD6
:1046C0000A00022802D90320BDE8F09F286810F0F4
:1046D000040FF2D1207810F0100F44D0E06930B10F
:1046E000802804D05EA040F21F2105F0F4F9206A72
:1046F0003F2804D94FF4087159A005F0ECF9D8F817
:10470000000000F038003968DFF89CB1082813D0A9
:10471000182803D101F0030001280DD0E069A8B3E7
:10472000286840F080002860FDF72AFD824628684E
:1047300010F4807F2BD037E0286810F4807F05D0FC
:10474000E069802802D00120BDE8F09FFDF712FD4E
:10475000484510D8206A202806D0316821F0F84159
:1047600041EA8060306056E0306820F0F84040F068
:10477000804030604FE0DBF8000094F8201020F01B
:104780007C5040EA0160CBF8000044E02CE0FDF7EB
:10479000F7FCA0EB0A00022802D90320BDE8F09F35
:1047A000286810F4807FF2D0FDF7E4FC484510D86B
:1047B000206A202806D0316821F0F84141EA806063
:1047C000306028E0306820F0F84040F080403060F1
:1047D00021E0DBF8000094F8201020F07C5040EA43
:1047E0000160CBF8000016E0286820F08000286007
:1047F000FDF7C6FC0646286810F4807F0BD0FDF755
:10480000BFFC801B022802D90320BDE8F09F286866
:1048100010F4807FF3D1207810F0080F6DD060691C
:1048200030B1012804D00EA040F2612105F053F907
:10483000DFF878906069D8B3D9F8000040F0010043
:10484000C9F80000FDF79CFC0646D9F8000010F0FE
:10485000020F52D1FDF794FC801B02282CD928E0CE
:104860002E2E2F447269766572732F53544D333256
:10487000483778785F48414C5F4472697665722F9B
:104880005372632F73746D3332683778785F686161
:104890006C5F7263632E6300104402582844025810
:1048A00000440258044402580C440258744402580C
:1048B00008E00320BDE8F09FD9F8000010F0020FD7
:1048C000C8D01AE0D9F8000020F00100C9F80000B3
:1048D000FDF756FC0646D9F8000010F0020F0CD088
:1048E000FDF74EFC801B022802D90320BDE8F09F93
:1048F000D9F8000010F0020FF2D1207810F0200F4C
:104900003AD0A06938B1012805D04FF42371AFF235
:10491000B00005F0E0F8A069B8B1286840F4805014
:104920002860FDF72DFC0646286810F4005F23D1AF
:10493000FDF726FC801B022802D90320BDE8F09F6A
:10494000286810F4005FF3D016E0286820F4805047
:104950002860FDF715FC0646286810F4005F0BD0B0
:10496000FDF70EFC801B022802D90320BDE8F09F52
:10497000286810F4005FF3D1207810F0040F44D0C1
:10498000A06848B1012807D0052805D040F2B6211B
:10499000AFF2341005F09FF8DF4E306840F48070BD
:1049A0003060FDF7EDFB8146306810F4807F0CD15C
:1049B000FDF7E6FBA0EB0900642802D90320BDE85F
:1049C000F09F306810F4807FF2D0A068DFF84C933D
:1049D00001281BD008B305282CD0D9F8000020F0FE
:1049E0000100C9F80000D9F8000020F00400C9F85F
:1049F0000000A06841F2883A88B3FDF7C1FB064683
:104A0000D9F8000010F0020F21D044E0D9F80000DE
:104A100040F00100C9F80000EBE7D9F8000020F0F1
:104A20000100C9F80000D9F8000020F00400C9F81E
:104A30000000DEE7D9F8000040F00400C9F80000EB
:104A4000D9F8000040F00100C9F80000D1E7FDF7F7
:104A500097FB801B504503D90320BDE8F09F05E07C
:104A6000D9F8000010F0020FF1D014E0FDF788FB38
:104A70000646D9F8000010F0020F0CD0FDF780FBBD
:104A8000801B504502D90320BDE8F09FD9F80000F3
:104A900010F0020FF2D1606A48B1012807D0022855
:104AA00005D04FF43A71AFF2482005F014F8616A6E
:104AB000002900F02E81D8F80000994E00F038004F
:104AC000182800F0FD80022913D0286820F080709B
:104AD0002860FDF755FB0446286810F0007F00F0C1
:104AE0001881FDF74DFB001B022879D90320BDE892
:104AF000F09FA06A01280AD048B1032807D00228F5
:104B000005D040F2F121AFF2A82004F0E4FF206CC0
:104B100058B1042809D0082807D00C2805D040F245
:104B2000F221AFF2C42004F0D6FF606C38B1022845
:104B300005D040F2F321AFF2D82004F0CCFFE06AB8
:104B4000401E3E2805D94FF43D71AFF2EC2004F031
:104B5000C2FF206B001FB0F5FE7F05D940F2F521A2
:104B6000AFF2043004F0B7FF606B401E7F2805D918
:104B700040F2F621AFF2183004F0ADFFA06B401EFA
:104B80007F2805D940F2F721AFF22C3004F0A3FFC3
:104B9000E06B401E7F2805D94FF43E71AFF24030E4
:104BA00004F099FFA06CB0F5005F05D340F2F92145
:104BB000AFF2543004F08FFF286820F08070286036
:104BC000FDF7DEFA8046286810F0007F0DD0FDF773
:104BD000D7FAA0EB0800022803D90320BDE8F09F14
:104BE00068E0286810F0007FF1D13868E16A20F0B1
:104BF000F30020F4407040EA0110A16A08433860D5
:104C0000208E4FF47E42616B401E491EC0F30800A7
:104C100002EA41210843218FD201491E02EA0141E3
:104C2000084394F83C10491E120202EA016108434D
:104C300030603C48016821F0010101603A4A116886
:104C4000A36C6FF3CF0141EAC30111600168226CCC
:104C500021F00C01114301600168626C21F0020136
:104C600011430160016841F480310160016841F441
:104C700000310160016841F480210160016841F068
:104C800001010160286840F080702860FDF778FA23
:104C90000446286810F0007F3BD1FDF771FA001B35
:104CA000022802D90320BDE8F09F286810F0007F99
:104CB000F3D02EE0286810F0007F7FF412AF28E0D8
:104CC0003A683068012921D0A36A02F003019942B1
:104CD0001CD1E16AC2F30512914217D1226BC0F3D5
:104CE0000801521E914211D1616BC0F34622491E48
:104CF00091420BD1A16BC0F30642491E914205D1EE
:104D0000E16BC0F30660491E814202D00120BDE87C
:104D1000F09F0020BDE8F09F004802587044025800
:104D2000304402582C440258344402582DE9F041D2
:104D30000446002C00F0E880CA4F2068CA4DCB4ED4
:104D4000B84214D0A84212D0B04210D0A0F1804195
:104D5000B1F59A310BD0B1F5E05108D0A0F1B041D6
:104D6000B1F5A05103D0FB21C1A004F0B4FE6068EE
:104D700030B1B0F5800F03D0FC21BDA004F0ABFE34
:104D8000A06860B1B0F5802F09D0B0F5C02F06D073
:104D9000B0F5003F03D0FD21B5A004F09CFEE06813
:104DA0001F283BD01E2839D01D2837D01C2835D0CD
:104DB0001B2833D01A2831D019282FD018282DD0ED
:104DC00017282BD0162829D0152827D0142825D00D
:104DD000132823D0122821D011281FD010281DD02D
:104DE0000F281BD00E2819D00D2817D00C2815D04D
:104DF0000B2813D00A2811D009280FD008280DD06D
:104E000007280BD0062809D0052807D0042805D08C
:104E1000032803D0FE2196A004F05DFEE06B48B3AA
:104E2000202827D0402825D0602823D0802821D0D2
:104E3000A0281FD0C0281DD0E0281BD0B0F5807F4F
:104E400018D0B0F5907F15D0B0F5A07F12D0B0F596
:104E5000B07F0FD0B0F5C07F0CD0B0F5D07F09D0B7
:104E6000B0F5E07F06D0B0F5F07F03D0FF2180A041
:104E700004F031FEA069B0F1806F08D038B1B0F114
:104E8000005F04D04FF4807179A004F024FE606BC1
:104E9000B0F1804F05D020B175A040F2011104F0AF
:104EA0001AFEE069C8B1B0F1805F16D0B0F1005FC2
:104EB00013D0B0F1405F10D0B0F1804F0DD0B0F101
:104EC000A04F0AD0B0F1C04F07D0B0F1E04F04D0EE
:104ED00067A04FF4817104F0FEFD206A38B1B0F58F
:104EE000000F04D062A040F2031104F0F4FD606AE8
:104EF00038B1B0F5002F04D04FF482715CA004F0FB
:104F0000EAFD606A18B116E00120BDE8F081206971
:104F100038B1B0F1007F04D055A040F2071104F081
:104F2000DAFD606938B1B0F1807F04D04FF484714C
:104F30004FA004F0D0FD4FF00008C4F8288020688E
:104F4000B84209D0A84207D0B04205D0E0680F2887
:104F500002D90120BDE8F081204603F07BF801462C
:104F60002068B84205D0A84203D0B04201D0082939
:104F700007D8B84203D0A84201D0B04204D11029CA
:104F800002D90120BDE8F08194F8810020B984F8AD
:104F90008080204600F088F8022084F88100206894
:104FA000016821F001010160A069B0F1806F0FD1AB
:104FB0006068B0F5800F01D1A16B21B140B9A06B41
:104FC000B0F1805F04D12068016841F48051016034
:104FD000A16AE0690143E06B0843E1680843216886
:104FE0008860616A606BA2690843A16B1143084342
:104FF0002169084361690843216A084361680843DD
:10500000E16C0843A1680843A16C0843A16D084303
:105010002168C860606868B92068816821F4C0515F
:1050200041F4006181602068816821F4C06141F42D
:10503000806181602068016D21F001010165606877
:1050400010F4800F06D02068C168626D21F0004125
:105050001143C160C4F88480012084F881000020DD
:10506000BDE8F0810030014000380040003C0040C5
:105070002E2E2F447269766572732F53544D33323E
:10508000483778785F48414C5F4472697665722F83
:105090005372632F73746D3332683778785F686149
:1050A0006C5F7370692E630010B5B6B004461421AE
:1050B0002FA8FBF763FBBC216846FBF75FFB184991
:1050C000206888422AD14FF480400090002468462E
:1050D0002B94FDF7BBFF08B1FCF75CFB114801689E
:1050E00041F020010160006800F0200034900D487C
:1050F0001438016841F00201016000680DF1BC0C38
:10510000022100F00200349028200122082333936A
:105110008CE8170004482FA9FCF756FE36B010BDE6
:1051200000140058F4440258000402582DE9F84FC6
:1051300004468B4692461D464FF00009A0680028A1
:105140000AD0B0F5C02F07D0B0F5003F04D0A6A01C
:1051500040F21E3104F0BFFC94F88000012810D00A
:105160004FF0010884F88080FDF70AF8064694F8AD
:1051700081000027012807D0022084F88070BDE854
:10518000F88F0220BDE8F88FBBF1000F19D0BAF1FB
:10519000000F16D0032084F88100C4F88470C4F88E
:1051A0005CB0A4F860A0A4F862A06766A4F8687078
:1051B000A4F86A7067672767A068B0F5C02F05D0AC
:1051C00009E0012084F88070BDE8F88F206801684C
:1051D00041F400610160206841686FF30F0141EA0A
:1051E0000A0141602068016841F0010101606068C6
:1051F000B0F5800F04D12068016841F400710160AE
:10520000E0680F2832D9B4F86200002864D0206822
:10521000416911F0020F0BD0E16D09680162E06D88
:10522000001DE065B4F86200401EA4F8620008E0CA
:10523000FCF7A6FF801BA84202D3B5F1FF3F05D1C2
:1052400025B1B4F862000028E1D19EE0204602F0CA
:105250009FFE84F88070D4F8840040F48070C4F815
:10526000840084F881800120BDE8F88F072844D9A4
:10527000B4F8620000282FD02068416911F0020FB5
:105280001DD0B4F8621001290DD9E16B59B1E16D5F
:1052900009680162E06D001DE065B4F86200801EDF
:1052A000A4F8620014E0E16D09880184E06D801CBF
:1052B000E065B4F86200401EA4F8620008E0FCF764
:1052C0005FFF801BA84202D3B5F1FF3F05D125B196
:1052D000B4F862000028CFD157E0204602F058FE13
:1052E00084F88070D4F8840040F48070C4F884009E
:1052F00084F881800120BDE8F88FB4F86200B0B373
:105300002068416911F0020F32D0B4F8621003290D
:105310000ED9E16B40290BD9E16D09680162E06D9E
:10532000001DE065B4F86200001FA4F8620028E0E8
:10533000B4F8621001290DD9E16B59B1E16D09880A
:105340000184E06D801CE065B4F86200801EA4F862
:10535000620016E0E16D097880F82010E06D401CD5
:10536000E065B4F86200401EA4F8620009E00CE0B9
:10537000FCF706FF801BA84202D3B5F1FF3F1FD107
:10538000F5B1B4F862000028BAD1002233460821F2
:105390002046009502F068FE28B1D4F8840040F061
:1053A0002000C4F88400204602F0F2FD84F88070EA
:1053B00084F88180D4F8840090B10120BDE8F88F92
:1053C000204602F0E5FD84F88070D4F8840040F4B3
:1053D0008070C4F8840084F881800120BDE8F88FD3
:1053E0004846BDE8F88F00002E2E2F44726976657E
:1053F00072732F53544D3332483778785F48414C9D
:105400005F4472697665722F5372632F73746D33C4
:1054100032683778785F68616C5F7370692E6300FB
:10542000401EB0F1807F01D3012070474FF0E02192
:105430004861F020034A107000208861072008614D
:105440000020704723ED00E02DE9F05F04460D4693
:10545000DFF87491DFF874A12068DFF874B1DFF829
:10546000748148451ED0B0F1804F1BD0504519D0F3
:10547000584517D0A0F18041B1F5406112D0B0EB92
:10548000B9410FD0B1F580610CD040450AD0B1F5DB
:10549000806107D0B1F5943104D04FA040F28671FD
:1054A00004F019FB286890B1102810D020280ED0E5
:1054B00030280CD040280AD0502808D0602806D0C8
:1054C000702804D044A040F2877104F004FBA8685F
:1054D000802805D020B140A04FF4F16104F0FBFA20
:1054E00094F83C0001286CD0012084F83C00022094
:1054F00084F83D00206846688768484501D04045EB
:1055000038D1686888B3B0F5801F2ED0B0F5001F81
:105510002BD0B0F5401F28D0B0F5800F25D0B0F5C6
:10552000A00F22D0B0F5C00F1FD0B0F5E00F1CD0F7
:10553000B0F5000F19D0B0F5100F16D0B0F5200F50
:1055400013D0B0F5300F10D0B0F5400F0DD0B0F53E
:10555000500F0AD0B0F5600F07D0B0F5700F04D02F
:105560001DA040F29A7104F0B6FA26F47000696842
:1055700041EA000626F07000296808432168486067
:105580002068484510D0B0F1804F0DD050450BD069
:10559000584509D0A0F18041B1F5406104D04045A3
:1055A00002D0B1F5406104D127F08001AA6811430F
:1055B0008160012084F83D00002084F83C00BDE8B3
:1055C000F09F0220BDE8F09F000001400004004071
:1055D00000080040000401402E2E2F4472697665B9
:1055E00072732F53544D3332483778785F48414CAB
:1055F0005F4472697665722F5372632F73746D33D3
:1056000032683778785F68616C5F74696D5F657860
:105610002E63000010B50446002C5AD02068A0F17B
:105620008041B1F580312BD0B0F1804F28D011F5F9
:105630007C4125D0B1F5806122D0B1F580611FD0C9
:10564000B1F580611CD0B1F5806119D0B1F5704120
:1056500016D011F56C4113D0B1F5806110D0B1F5C1
:1056600080610DD0B1F590310AD0B1F5806107D0DD
:10567000B1F5806104D02CA04FF48B7104F02BFAAB
:10568000A06860B110280AD0202808D0402806D091
:10569000602804D024A040F2171104F01CFA2069FD
:1056A00050B1B0F5807F07D0B0F5007F04D04FF443
:1056B0008C711DA004F00FFAA06930B1802804D0CD
:1056C00019A040F2191104F006FA94F83D0010B147
:1056D00007E0012010BD002084F83C00204600F0C7
:1056E0003FF8022084F83D002068211D02F0B8FD3B
:1056F000012084F8480084F83E0084F83F0084F8D4
:10570000400084F8410084F8420084F8430084F8A3
:10571000440084F8450084F8460084F8470084F883
:105720003D00002010BD00002E2E2F4472697665CA
:1057300072732F53544D3332483778785F48414C59
:105740005F4472697665722F5372632F73746D3381
:1057500032683778785F68616C5F74696D2E6300BA
:1057600008B500680649884208D10648016841F03A
:1057700002010160006800F00200009008BD000016
:1057800000040040E84402582DE9F04705460C4665
:1057900095F83C0001283AD0012685F83C600220AB
:1057A00085F83D002068B0F5805F16D0B0F5005F49
:1057B00013D090B1102810D020280ED030280CD053
:1057C00040280AD0502808D0602806D0702804D07D
:1057D000ECA041F2AF4104F07EF92868816821F025
:1057E000770121F4441121F47F4181602068F3495D
:1057F000F34A7028F34BDFF8D0C3F44FDFF8D083BF
:1058000072D016DC10F00F0F05D000F0B3B94FF0D6
:105810000200BDE8F0874FEA2010072880F0AA8137
:10582000DFE810F08F018F018F018F015A01F00026
:105830002501B0F1101F00F084810BDCB0F5805F12
:1058400015D0B0F5005F7CD0B0F5801F40F092819C
:1058500000F077B9A0F58010203800F07281102890
:1058600000F06F81202840F0858100F06AB9286837
:10587000884200F07F81B0F1804F00F07B81904240
:1058800000F07881984200F07581604500F07281E7
:10589000A0F18041B1F5805100F06C81B1F58061DB
:1058A00000F06881B84200F06581B1F5806100F0D8
:1058B0006181B1F5806100F05D81B1F5806100F03A
:1058C0005981404500F05681B1F5923100F0528186
:1058D000B1F5806100F04E81AAA041F2BB4104F015
:1058E000FAF800F047B9FFE7286888420FD0B0F116
:1058F000804F0CD090420AD0984208D0604506D024
:10590000B84204D09FA041F2C24104F0E4F8A0687C
:1059100068B1B0F5805F0AD0B0F5005F07D0B0F590
:10592000405F04D097A041F2C54104F0D4F860680C
:10593000B0F5004F0BD050B1022808D00A2806D08D
:1059400000E019E08FA041F2C64104F0C4F8E0681D
:105950000F2804D98BA041F2C74104F0BCF8E368DA
:105960006268A168286802F04BFD2868816841F0F0
:105970007701816000F0FEB8286888420FD0B0F14E
:10598000804F0CD090420AD0984208D0604506D093
:10599000B84204D07BA041F2DA4104F09CF8A06840
:1059A00068B1B0F5805F0AD0B0F5005F07D0B0F500
:1059B000405F04D073A041F2DD4104F08CF86068D0
:1059C000B0F5004F09D040B1022806D00A2804D013
:1059D0006CA041F2DE4104F07EF8E0680F2804D9A3
:1059E00068A041F2DF4104F076F8E3686268A168DC
:1059F000286802F005FD2868816841F480418160D3
:105A000000F0B8B82868884211D0B0F1804F0ED0AD
:105A100090420CD098420AD0604508D0B84206D0D7
:105A2000404504D057A041F2EE4104F054F86068BC
:105A3000B0F5004F09D040B1022806D00A2804D0A2
:105A400050A041F2F14104F046F8E0680F2804D973
:105A50004CA041F2F24104F03EF8E2686168286827
:105A600002F041FF2868502102F0D5FC82E028684E
:105A7000884211D0B0F1804F0ED090420CD09842A5
:105A80000AD0604508D0B84206D0404504D03DA0B9
:105A900041F2FE4104F01FF86068B0F5004F09D0F4
:105AA00040B1022806D00A2804D036A041F20151A4
:105AB00004F011F8E0680F2804D932A041F2025135
:105AC00004F009F8E2686168286802F01FFF28689E
:105AD000602102F0A0FC4DE02868884211D0B0F1AE
